102558157000162108383949112  TELEFONICA BRASIL S/A                             Av. Engenheiro Luiz Carlos Berrini, 1376, Ed. Eco 004571936São Paulo                     São Paulo                     SPMario Julio Monegatti Junior  Gerente Tributário  011973937777mario.monegatti@telefonica.com          188210700094996637403000925488041470002313789523400003518608594
2220000000611  20151001FB0D723403A2F76C41A2C50949B7C30C00067066240634ISENTO        LUCINEIA APARECIDA VIEIRA DE ANDRADSP67066240630000001200370000001151260000000287840090000000004250000000001062Este erro é conseqüência de falhas operacionais no processo de precificação dos serviços dos clientes, ocasionando desta forma erro de cobrança.                                                        8892876943_20160108 
222000000067UT 201509017C7B8D44A46EDA55CFA5D1B82440D52B03309388000103ISENTO        EMBRAPLAN ENGENHARIA LTDA          SP03309388000000001359200000001203940000000300990070000000213370000000053342Este erro é conseqüência de falhas operacionais no processo de precificação dos serviços dos clientes, ocasionando desta forma erro de cobrança.                                                        0002367UT201509     
222000000067UT 201509017C7B8D44A46EDA55CFA5D1B82440D52B03309388000103ISENTO        EMBRAPLAN ENGENHARIA LTDA          SP03309388000000001359200000001203940000000300990050000000300990000000102012Este erro é conseqüência de falhas operacionais no processo de precificação dos serviços dos clientes, ocasionando desta forma erro de cobrança.                                                        0002367UT201509     
222000000092UT 2015090166A89E6CA77781B1C057E1867714767B00076695166820ISENTO        NILSON TEIXEIRA DE SOUZA           SP76695166820000000008620000000001830000000000460030000000000440000000000112Este erro é conseqüência de falhas operacionais no processo de precificação dos serviços dos clientes, ocasionando desta forma erro de cobrança.                                                        0002592UT201509     
2220000000941  20150901183BADD11ACECCFF1E697003D6C8C62A00060141280859ISENTO        VALDIR PEREIRA DA SILVA            SP60141280850000000851790000000791990000000198010030000000003510000000000882Este erro é conseqüência de falhas operacionais no processo de precificação dos serviços dos clientes, ocasionando desta forma erro de cobrança.                                                        6014128085          
2220000001271  20150401ED8A777A318EAA0C911FD20ECBBDB6B800013553819839ISENTO        FERNANDO PEIXOTO DE ALENCAR        SP13553819830000000077220000000065840000000016470010000000016470000000008992Este erro é conseqüência de falhas operacionais no processo de precificação dos serviços dos clientes, ocasionando desta forma erro de cobrança.                                                        036001271201504     
2220000001731  2015060158C4B59B0FDADF0619B9BD7664C38DD100010435338854ISENTO        SERGIO MARTINS                     SP10435338850000000144700000000137070000000034280060000000034280000000011252Este erro é conseqüência de falhas operacionais no processo de precificação dos serviços dos clientes, ocasionando desta forma erro de cobrança.                                                        076851731201506     
2220000001781  20150501EFCE48B0FDCBBCD38FE1B0C39641525F00010435338854ISENTO        SERGIO MARTINS                     SP10435338850000000133580000000129920000000032490060000000032490000000009632Este erro é conseqüência de falhas operacionais no processo de precificação dos serviços dos clientes, ocasionando desta forma erro de cobrança.                                                        076851781201505     
222000000230UT 2015050186E3D8442D115671489AD83D12D8C31103438514000111ISENTO        POLYBELT COM ACESS INDS LTDA       SP03438514000000000008260000000007410000000001850040000000001850000000000602Este erro é conseqüência de falhas operacionais no processo de precificação dos serviços dos clientes, ocasionando desta forma erro de cobrança.                                                        00051230UT201505    
222000000237UT 201511019ACEF6A1876E05352020D30E9241329508031834000176ISENTO        GRUPO SISTEMA ESCRITORIO CONTABIL SSP08031834000000000000750000000000750000000000190010000000000190000000000192Este erro é conseqüência de falhas operacionais no processo de precificação dos serviços dos clientes, ocasionando desta forma erro de cobrança.                                                        0803183400          
2220000000451  201507017FDBE7170F780A030C3077F626B0821E00089062752349ISENTO        FABIANA REGINA CORREIA MONTEIRO    SP89062752340000000082140000000082140000000020540010000000020540000000012072Este erro é conseqüência de falhas operacionais no processo de precificação dos serviços dos clientes, ocasionando desta forma erro de cobrança.                                                        03335451201507      
2220000000611  20151001FB0D723403A2F76C41A2C50949B7C30C00067066240634ISENTO        LUCINEIA APARECIDA VIEIRA DE ANDRADSP67066240630000001200370000001151260000000287840070000000148220000000037062Este erro é conseqüência de falhas operacionais no processo de precificação dos serviços dos clientes, ocasionando desta forma erro de cobrança.                                                        8892876943_20160108 
2220000000801  201504015755DD0A438E3BDAE43BE38DD341F0C000002563914833ISENTO        JUREMA PEREIRA LEITE DE SIQUEIRA   SP02563914830000000072840000000072840000000018210010000000018210000000008753Ocorre principalmente em função de erro humano no ato do cadastramento no sistema de faturamento do preço da tarifa constante do contrato fechado com o cliente.                                        06389801201504      
222000000093UT 2015040113667C105551DAFC877ADA45334A5AC500076695166820ISENTO        NILSON TEIXEIRA DE SOUZA           SP76695166820000000007170000000000930000000000230020000000000230000000000102Este erro é conseqüência de falhas operacionais no processo de precificação dos serviços dos clientes, ocasionando desta forma erro de cobrança.                                                        0002593UT201504     
2220000000941  20150901183BADD11ACECCFF1E697003D6C8C62A00060141280859ISENTO        VALDIR PEREIRA DA SILVA            SP60141280850000000851790000000791990000000198010050000000198010000000165342Este erro é conseqüência de falhas operacionais no processo de precificação dos serviços dos clientes, ocasionando desta forma erro de cobrança.                                                        6014128085          
2220000001211  201507012C6C2CEAD6B09E2DF212B7841F8F2E2600013553819839ISENTO        FERNANDO PEIXOTO DE ALENCAR        SP13553819830000000000000000000065400000000016360020000000016360000000008882Este erro é conseqüência de falhas operacionais no processo de precificação dos serviços dos clientes, ocasionando desta forma erro de cobrança.                                                        036001211201507     
222000000150UT 201506010B225B44D3235F4976596ED3B824DC0044024941000130ISENTO        FLOW CENTER DO BRASIL INDUSTRIA E CSP44024941000000000083810000000082110000000020530010000000020530000000020532Este erro é conseqüência de falhas operacionais no processo de precificação dos serviços dos clientes, ocasionando desta forma erro de cobrança.                                                        00040150UT201506    
222000000230UT 2015050186E3D8442D115671489AD83D12D8C31103438514000111ISENTO        POLYBELT COM ACESS INDS LTDA       SP03438514000000000008260000000007410000000001850030000000001700000000000422Este erro é conseqüência de falhas operacionais no processo de precificação dos serviços dos clientes, ocasionando desta forma erro de cobrança.                                                        00051230UT201505    
222000000247UT 20150601720547FCEE54FB4C46EB4767DCC20EA402127580000108ISENTO        RR CONSULTORIA E ACESSORIA COMERCIASP02127580000000000000390000000000390000000000100010000000000100000000000102Este erro é conseqüência de falhas operacionais no processo de precificação dos serviços dos clientes, ocasionando desta forma erro de cobrança.                                                        00054247UT201506    
2220000002691  2015120131B497CD9DFADE6861E1D9EC2CC8193E00072490233149ISENTO        JANAINA DUTRA FERLINI              SP72490233140000000089900000000089900000000022480010000000022480000000022482Este erro é conseqüência de falhas operacionais no processo de precificação dos serviços dos clientes, ocasionando desta forma erro de cobrança.                                                        7745484791_20170311 
2220000000461  2015100161CF0DBAE59C71A95DA762670521B4C800097042579887ISENTO        NILTON COUTINHO                    SP97042579880000000137080000000094800000000023700010000000017970000000004492Este erro é conseqüência de falhas operacionais no processo de precificação dos serviços dos clientes, ocasionando desta forma erro de cobrança.                                                        9704257988          
2220000000611  201507016770AA894AEDA63A506D8134E165095F00067066240634ISENTO        LUCINEIA APARECIDA VIEIRA DE ANDRADSP67066240630000000272650000000215690000000053930070000000027770000000006942Este erro é conseqüência de falhas operacionais no processo de precificação dos serviços dos clientes, ocasionando desta forma erro de cobrança.                                                        08892611201507      
2220000000611  20151001FB0D723403A2F76C41A2C50949B7C30C00067066240634ISENTO        LUCINEIA APARECIDA VIEIRA DE ANDRADSP67066240630000001200370000001151260000000287840100000000001430000000000362Este erro é conseqüência de falhas operacionais no processo de precificação dos serviços dos clientes, ocasionando desta forma erro de cobrança.                                                        8892876943_20160108 
2220000000611  20151001FB0D723403A2F76C41A2C50949B7C30C00067066240634ISENTO        LUCINEIA APARECIDA VIEIRA DE ANDRADSP67066240630000001200370000001151260000000287840110000000067470000000000892Este erro é conseqüência de falhas operacionais no processo de precificação dos serviços dos clientes, ocasionando desta forma erro de cobrança.                                                        8892876943_20160108 
2220000000801  201504015755DD0A438E3BDAE43BE38DD341F0C000002563914833ISENTO        JUREMA PEREIRA LEITE DE SIQUEIRA   SP02563914830000000072840000000072840000000018210020000000018210000000009463Ocorre principalmente em função de erro humano no ato do cadastramento no sistema de faturamento do preço da tarifa constante do contrato fechado com o cliente.                                        06389801201504      
222000000087UT 2015110118DEFEC3D48FC6DF8A3F5711D11D1FA400076695166820ISENTO        NILSON TEIXEIRA DE SOUZA           SP76695166820000000008490000000001700000000000430030000000000430000000000282Este erro é conseqüência de falhas operacionais no processo de precificação dos serviços dos clientes, ocasionando desta forma erro de cobrança.                                                        7669516682          
222000000093UT 201506014FC367EF03994C28D7AA3EA28E1938F400076695166820ISENTO        NILSON TEIXEIRA DE SOUZA           SP76695166820000000008340000000002100000000000530020000000000360000000000092Este erro é conseqüência de falhas operacionais no processo de precificação dos serviços dos clientes, ocasionando desta forma erro de cobrança.                                                        0002593UT201506     
222000000126UT 20150801B9B1AD9BD154D92C77425C05DE06CF2360050929000238ISENTO        VENEZA ACABAMENTOS E REPRESENTACOESSP60050929000000000008950000000059780000000014950010000000014950000000002242Este erro é conseqüência de falhas operacionais no processo de precificação dos serviços dos clientes, ocasionando desta forma erro de cobrança.                                                        00034126UT201508    
2220000001671  20150701B2C1995AB7ADFA991D70556EBFE9B3B300010435338854ISENTO        SERGIO MARTINS                     SP10435338850000000144330000000142120000000035540070000000035540000000011132Este erro é conseqüência de falhas operacionais no processo de precificação dos serviços dos clientes, ocasionando desta forma erro de cobrança.                                                        076851671201507     
222000000185UT 201507016A7162385278AD20A112AFB321DEC13548249957000100ISENTO        IMOBILIARIA MONTE MOR S/C LTDA     SP48249957000000000006500000000000260000000000070030000000000070000000000072Este erro é conseqüência de falhas operacionais no processo de precificação dos serviços dos clientes, ocasionando desta forma erro de cobrança.                                                        00048185UT201507    
2220000002441  20150801AF4C38E5B32EB22353D170B234772D0200076291090830ISENTO        GUERCILIA DE OLIVEIRA              SP76291090830000000048080000000018180000000004550010000000004550000000003612Este erro é conseqüência de falhas operacionais no processo de precificação dos serviços dos clientes, ocasionando desta forma erro de cobrança.                                                        025152441201508     
222000000245UT 201509015FF2D1D18B6C77A9AF67500BE6B5058B08031834000176ISENTO        GRUPO SISTEMA ESCRITORIO CONTABIL SSP08031834000000000007470000000000370000000000090040000000000090000000000092Este erro é conseqüência de falhas operacionais no processo de precificação dos serviços dos clientes, ocasionando desta forma erro de cobrança.                                                        00054245UT201509    
222000000253UT 2015060109B3467C091B868D36F54D21D38D7D5752168077000179ISENTO        ARFE CONTABIL S/C LTDA             SP52168077000000000008430000000002190000000000550030000000000550000000000552Este erro é conseqüência de falhas operacionais no processo de precificação dos serviços dos clientes, ocasionando desta forma erro de cobrança.                                                        00054253UT201506    
222000000396C  20150701C17DD6616412967AA51FF46CD6069DF905149152000255103567267     TSE AUTOMA¿¿O INDUSTRIAL LTDA      AT02437384760000002658770000002429770000000607460030000000000280000000000072Este erro é conseqüência de falhas operacionais no processo de precificação dos serviços dos clientes, ocasionando desta forma erro de cobrança.                                                        243738476           
222000000396C  20150701C17DD6616412967AA51FF46CD6069DF905149152000255103567267     TSE AUTOMA¿¿O INDUSTRIAL LTDA      AT02437384760000002658770000002429770000000607460060000000607460000000380452Este erro é conseqüência de falhas operacionais no processo de precificação dos serviços dos clientes, ocasionando desta forma erro de cobrança.                                                        243738476           
2220000004101  20150601DD3ACE376CC42142EAB289B02D1B0C8900035769826800ISENTO        PAULO GREGORIO DE OLIVEIRA         SP35769826800000000125380000000114980000000028760060000000028760000000009992Este erro é conseqüência de falhas operacionais no processo de precificação dos serviços dos clientes, ocasionando desta forma erro de cobrança.                                                        027794101201506     
2220000004411  20150901133FA50A178AEF5B2F608FCDCE7E440200040180287842ISENTO        FERNANDO CAVALCANTE ARAUJO         SP40180287840000000104030000000104030000000026010020000000026010000000010455Ocorre este erro quando, em função de falhas sistêmicas, são disparados indevidamente serviços com funcionalidades automáticas, sem que o cliente as tenha contratado.                                  064424411201509     
222000000461UT 2015110119317D399D67092E09DC7D1BE8DFB51648780159000100ISENTO        ASBEA ASSOCIACAO BRASILEIRA DOS ESCSP48780159000000000007480000000000690000000000170020000000000170000000000172Este erro é conseqüência de falhas operacionais no processo de precificação dos serviços dos clientes, ocasionando desta forma erro de cobrança.                                                        4878015900          
222000000465UT 20150501F3F3E104C05713673FF6C48EA9E6F37247102504000186ISENTO        HOTEIS BAUKUS LTDA                 SP47102504000000000000400000000000190000000000050020000000000050000000000052Este erro é conseqüência de falhas operacionais no processo de precificação dos serviços dos clientes, ocasionando desta forma erro de cobrança.                                                        00101465UT201505    
2220000004871  201510017ED0DFA34F65C4FB9E60CD3C431DB79A00026914187827ISENTO        FERNANDO LUIZ DA SILVA             SP26914187820000000104160000000050120000000012530100000000012530000000005552Este erro é conseqüência de falhas operacionais no processo de precificação dos serviços dos clientes, ocasionando desta forma erro de cobrança.                                                        2691418782          
2220000000191  201510019409BAEAD0FC261B4C9E08DA95DA980700033414721856ISENTO        WILSON DOS SANTOS BATISTA          SP33414721850000000043230000000043230000000010820020000000010820000000004772Este erro é conseqüência de falhas operacionais no processo de precificação dos serviços dos clientes, ocasionando desta forma erro de cobrança.                                                        3341472185          
222000000067UT 201509017C7B8D44A46EDA55CFA5D1B82440D52B03309388000103ISENTO        EMBRAPLAN ENGENHARIA LTDA          SP03309388000000001359200000001203940000000300990010000000034810000000007512Este erro é conseqüência de falhas operacionais no processo de precificação dos serviços dos clientes, ocasionando desta forma erro de cobrança.                                                        0002367UT201509     
222000000067UT 201509017C7B8D44A46EDA55CFA5D1B82440D52B03309388000103ISENTO        EMBRAPLAN ENGENHARIA LTDA          SP03309388000000001359200000001203940000000300990210000000179870000000037242Este erro é conseqüência de falhas operacionais no processo de precificação dos serviços dos clientes, ocasionando desta forma erro de cobrança.                                                        0002367UT201509     
222000000092UT 2015090166A89E6CA77781B1C057E1867714767B00076695166820ISENTO        NILSON TEIXEIRA DE SOUZA           SP76695166820000000008620000000001830000000000460020000000000460000000000352Este erro é conseqüência de falhas operacionais no processo de precificação dos serviços dos clientes, ocasionando desta forma erro de cobrança.                                                        0002592UT201509     
2220000001261  2015060185080A59B48C572B455617DA0156055000013553819839ISENTO        FERNANDO PEIXOTO DE ALENCAR        SP13553819830000000072930000000065840000000016470020000000016470000000008992Este erro é conseqüência de falhas operacionais no processo de precificação dos serviços dos clientes, ocasionando desta forma erro de cobrança.                                                        036001261201506     
222000000145UT 201506010B6D7751B53CD9F2CA1F366490128A6000064057488804ISENTO        SONIA  MARIA ROLIM ROSA            SP64057488800000000001460000000000850000000000210020000000000210000000000212Este erro é conseqüência de falhas operacionais no processo de precificação dos serviços dos clientes, ocasionando desta forma erro de cobrança.                                                        00039145UT201506    
2220000001771  201504010DBC334BB265E6EE4DD77512F9C0EAC400010435338854ISENTO        SERGIO MARTINS                     SP10435338850000000142270000000136510000000034140050000000034140000000011252Este erro é conseqüência de falhas operacionais no processo de precificação dos serviços dos clientes, ocasionando desta forma erro de cobrança.                                                        076851771201504     
2220000002031  2015100144EFE8B9887AC95AE612CF17CBDA5E6E00019582489839ISENTO        MARIA APARECIDA DA ROCHA SANTOS *  SP19582489830000000038120000000036360000000009090030000000009090000000003482Este erro é conseqüência de falhas operacionais no processo de precificação dos serviços dos clientes, ocasionando desta forma erro de cobrança.                                                        1958248983          
222000000212UT 20150701320D04566CCF09FB9E7A62D649E5831351934594000149ISENTO        SPT SONDAGENS ENGENHARIA DE SOLOS FSP51934594000000000007880000000001640000000000410020000000000410000000000372Este erro é conseqüência de falhas operacionais no processo de precificação dos serviços dos clientes, ocasionando desta forma erro de cobrança.                                                        00050212UT201507    
222000000250UT 201504011708B53C638DEEB9831BA2C531A81FD202127580000108ISENTO        RR CONSULTORIA E ACESSORIA COMERCIASP02127580000000000005690000000005690000000001420020000000001420000000000832Este erro é conseqüência de falhas operacionais no processo de precificação dos serviços dos clientes, ocasionando desta forma erro de cobrança.                                                        00054250UT201504    
2220000003311  20150701497B77F8D6773C17BACCFA9D040DF09100000650287592ISENTO        DANIZETE RODRIGUES DOS SANTOS      SP00650287590000000044230000000149310000000037330010000000004700000000001182Este erro é conseqüência de falhas operacionais no processo de precificação dos serviços dos clientes, ocasionando desta forma erro de cobrança.                                                        077843311201507     
2220000003341  20150801CE32AB041480A92BA55BEBE62A665E2D00000650287592ISENTO        DANIZETE RODRIGUES DOS SANTOS      SP00650287590000000151770000000004690000000001170010000000001170000000001172Este erro é conseqüência de falhas operacionais no processo de precificação dos serviços dos clientes, ocasionando desta forma erro de cobrança.                                                        077843341201508     
2220000004441  20151001F9A11226B0ACADAD8A3A961F35C5FFEB00040180287842ISENTO        FERNANDO CAVALCANTE ARAUJO         SP40180287840000000131140000000105550000000026390050000000026390000000010452Este erro é conseqüência de falhas operacionais no processo de precificação dos serviços dos clientes, ocasionando desta forma erro de cobrança.                                                        4018028784          
222000000472UT 201509011BFD3D6D5C2437B89538363D7DD14F8056710270000140ISENTO        LABORFIX LABORATORIO DE PROTESE DENSP56710270000000000009720000000002930000000000730020000000000730000000000732Este erro é conseqüência de falhas operacionais no processo de precificação dos serviços dos clientes, ocasionando desta forma erro de cobrança.                                                        00101472UT201509    
222000000483UT 20150501F692743FDB3360B16D5D00479E5871EC48780159000100ISENTO        ASBEA ASSOCIACAO BRASILEIRA DOS ESCSP48780159000000000008050000000001810000000000450020000000000450000000000452Este erro é conseqüência de falhas operacionais no processo de precificação dos serviços dos clientes, ocasionando desta forma erro de cobrança.                                                        00101483UT201505    
222000000486UT 201508012574644052BED20816E2F47693087A3800463981000103ISENTO        MARCO ZERO CORRETORA DE SEGUROS S/CSP00463981000000000007650000000004420000000001110030000000001110000000000582Este erro é conseqüência de falhas operacionais no processo de precificação dos serviços dos clientes, ocasionando desta forma erro de cobrança.                                                        00101486UT201508    
222000000490UT 201507019A613E95F3174678B053A5497DF844DF00463981000103ISENTO        MARCO ZERO CORRETORA DE SEGUROS S/CSP00463981000000000003230000000003230000000000810020000000000760000000000192Este erro é conseqüência de falhas operacionais no processo de precificação dos serviços dos clientes, ocasionando desta forma erro de cobrança.                                                        00101490UT201507    
2220000005211  201505010C308A883EF9D296621AEEBBE1C582C100027328574836ISENTO        PRISCILA HERNANDES                 SP27328574830000000066960000000066960000000016740020000000016740000000015342Este erro é conseqüência de falhas operacionais no processo de precificação dos serviços dos clientes, ocasionando desta forma erro de cobrança.                                                        093865211201505     
222000000528C  201509011D591A447B940BE3088576DC57D9E3E700020073006807ISENTO        ANA  CLAUDIA FERREIRA DOS SANTOS   AT00357050700000000044990000000044990000000011250010000000011250000000000072Este erro é conseqüência de falhas operacionais no processo de precificação dos serviços dos clientes, ocasionando desta forma erro de cobrança.                                                        35705070            
222000000566C  20150501B00A0D798B42D209555C01D48C24DDC3137527090001950017837240073 L & E COMERCIO LTDA - ME           AT21385793030000000666900000000626270000000156570020000000156570000000156572Este erro é conseqüência de falhas operacionais no processo de precificação dos serviços dos clientes, ocasionando desta forma erro de cobrança.                                                        2138579303          
222000000020C  20151201CA0D9187376B2481EBE149A216E6E1AB00081402473168ISENTO        VALMIRENE  BARBOSA SANTOS          AT21313351000000000045000000000045000000000011250010000000011250000000011252Este erro é conseqüência de falhas operacionais no processo de precificação dos serviços dos clientes, ocasionando desta forma erro de cobrança.                                                        2131335100          
2220000000431  20151101F42F161116EB68711ADD8EDCF8709EF300028800610838ISENTO        DANIEL APARECIDO PALAU             SP28800610830000000095320000000041080000000010280030000000010280000000006352Este erro é conseqüência de falhas operacionais no processo de precificação dos serviços dos clientes, ocasionando desta forma erro de cobrança.                                                        8842316405_20160207 
2220000000611  201507016770AA894AEDA63A506D8134E165095F00067066240634ISENTO        LUCINEIA APARECIDA VIEIRA DE ANDRADSP67066240630000000272650000000215690000000053930020000000053930000000015902Este erro é conseqüência de falhas operacionais no processo de precificação dos serviços dos clientes, ocasionando desta forma erro de cobrança.                                                        08892611201507      
2220000000691  201508015693B9255B42682932DCF25D72A8EE0400006089144878ISENTO        MARIA CELIA MENDES MIRANDA         SP06089144870000000122360000000114370000000028590010000000027980000000007002Este erro é conseqüência de falhas operacionais no processo de precificação dos serviços dos clientes, ocasionando desta forma erro de cobrança.                                                        06253691201508      
2220000001151  20150601A70959AE57CD8C5D99ECA56FA0C423BE00044602483879ISENTO        IZABELLA ALVARENGA DA COSTA        SP44602483870000000135550000000030180000000007550060000000007550000000003712Este erro é conseqüência de falhas operacionais no processo de precificação dos serviços dos clientes, ocasionando desta forma erro de cobrança.                                                        065661151201506     
222000000143UT 2015090126AA6F79A8A33ADE4D39842F056DED9D00064057488804ISENTO        SONIA MARIA ROLIM ROSA LIMA        SP64057488800000000001750000000000290000000000070020000000000070000000000072Este erro é conseqüência de falhas operacionais no processo de precificação dos serviços dos clientes, ocasionando desta forma erro de cobrança.                                                        00039143UT201509    
2220000001681  20150801D4B2BE976007646A3FEA52CFF0A6284900010435338854ISENTO        SERGIO MARTINS                     SP10435338850000000152270000000148980000000037260070000000037260000000011182Este erro é conseqüência de falhas operacionais no processo de precificação dos serviços dos clientes, ocasionando desta forma erro de cobrança.                                                        076851681201508     
222000000216UT 201505013FABB1CB206348E7E86DA07A092A0CF651934594000149ISENTO        SPT SONDAGENS ENGENHARIA DE SOLOS FSP51934594000000000007070000000000830000000000210020000000000210000000000212Este erro é conseqüência de falhas operacionais no processo de precificação dos serviços dos clientes, ocasionando desta forma erro de cobrança.                                                        00050216UT201505    
222000000223UT 20150901D2605E49D71CC2156009B9759C3694A603438514000111ISENTO        POLYBELT COM ACESS INDS LTDA       SP03438514000000000005200000000003260000000000820040000000000820000000000822Este erro é conseqüência de falhas operacionais no processo de precificação dos serviços dos clientes, ocasionando desta forma erro de cobrança.                                                        00051223UT201509    
222000000230UT 2015050186E3D8442D115671489AD83D12D8C31103438514000111ISENTO        POLYBELT COM ACESS INDS LTDA       SP03438514000000000008260000000007410000000001850050000000000940000000000242Este erro é conseqüência de falhas operacionais no processo de precificação dos serviços dos clientes, ocasionando desta forma erro de cobrança.                                                        00051230UT201505    
222000000197UT 201507015A0950FB35BAB76A1E682635BB73A0AB00694172000102ISENTO        SABOR E COR MASSAS EM GERAL LTDA MESP00694172000000000009880000000000390000000000100030000000000100000000000102Este erro é conseqüência de falhas operacionais no processo de precificação dos serviços dos clientes, ocasionando desta forma erro de cobrança.                                                        00050197UT201507    
2220000002161  201505018762B4E8C7A9DD8B001350528F14168B00013473552860ISENTO        MARCOS ROBERTTO DO NASCIMENTO      SP13473552860000000126710000000096910000000024230040000000000070000000000022Este erro é conseqüência de falhas operacionais no processo de precificação dos serviços dos clientes, ocasionando desta forma erro de cobrança.                                                        062672161201505     
2220000002161  201505018762B4E8C7A9DD8B001350528F14168B00013473552860ISENTO        MARCOS ROBERTTO DO NASCIMENTO      SP13473552860000000126710000000096910000000024230010000000002650000000000662Este erro é conseqüência de falhas operacionais no processo de precificação dos serviços dos clientes, ocasionando desta forma erro de cobrança.                                                        062672161201505     
222000000229UT 20150501C2403061DF1EDA3E840D9B9EDF6C580503438514000111ISENTO        POLYBELT COM ACESS INDS LTDA       SP03438514000000000009210000000002470000000000620050000000000620000000000242Este erro é conseqüência de falhas operacionais no processo de precificação dos serviços dos clientes, ocasionando desta forma erro de cobrança.                                                        00051229UT201505    
222000000344UT 20150801414DF410A66C36FE25FBB09B2CD09B7603457791000171ISENTO        OXICOMETA MANUTENCAO E COM DE GASESSP03457791000000000007670000000058030000000014510010000000014510000000001922Este erro é conseqüência de falhas operacionais no processo de precificação dos serviços dos clientes, ocasionando desta forma erro de cobrança.                                                        00079344UT201508    
2220000003471  20150401E3F68704F9BD3DA88F694A71164EE6E200028495707888ISENTO        CARLOS ROBERTO DA SILVA            SP28495707880000000055440000000039900000000009980020000000009980000000009982Este erro é conseqüência de falhas operacionais no processo de precificação dos serviços dos clientes, ocasionando desta forma erro de cobrança.                                                        025493471201504     
2220000003511  20150501F85F3A95830685A532318069CB0481B000025898262814ISENTO        ANNELIESE ALBRECHT                 SP25898262810000000040260000000040260000000010070010000000010070000000000272Este erro é conseqüência de falhas operacionais no processo de precificação dos serviços dos clientes, ocasionando desta forma erro de cobrança.                                                        075113511201505     
222000000379UT 20151001F888629A0FF5E9B78ECC31238E94F42000012554323810ISENTO        MARCIO FINOTTI PELEGRINO           SP12554323810000000002180000000002180000000000550010000000000550000000000272Este erro é conseqüência de falhas operacionais no processo de precificação dos serviços dos clientes, ocasionando desta forma erro de cobrança.                                                        1255432381          
222000000379UT 20151001F888629A0FF5E9B78ECC31238E94F42000012554323810ISENTO        MARCIO FINOTTI PELEGRINO           SP12554323810000000002180000000002180000000000550020000000000550000000000282Este erro é conseqüência de falhas operacionais no processo de precificação dos serviços dos clientes, ocasionando desta forma erro de cobrança.                                                        1255432381          
222000000396C  201506011EADC4EA01E2373992C9B1660A7590A805149152000255103567267     TSE AUTOMA¿¿O INDUSTRIAL LTDA      AT02437384760000002656600000002427600000000606910050000000011840000000002962Este erro é conseqüência de falhas operacionais no processo de precificação dos serviços dos clientes, ocasionando desta forma erro de cobrança.                                                        243738476           
222000000490UT 201507019A613E95F3174678B053A5497DF844DF00463981000103ISENTO        MARCO ZERO CORRETORA DE SEGUROS S/CSP00463981000000000003230000000003230000000000810030000000000570000000000142Este erro é conseqüência de falhas operacionais no processo de precificação dos serviços dos clientes, ocasionando desta forma erro de cobrança.                                                        00101490UT201507    
2220000005221  201504016474308ED22E81AF5E783EA86E13ABE700027328574836ISENTO        PRISCILA HERNANDES                 SP27328574830000000064920000000064920000000016230010000000005590000000001402Este erro é conseqüência de falhas operacionais no processo de precificação dos serviços dos clientes, ocasionando desta forma erro de cobrança.                                                        093865221201504     
2220000005221  201504016474308ED22E81AF5E783EA86E13ABE700027328574836ISENTO        PRISCILA HERNANDES                 SP27328574830000000064920000000064920000000016230020000000016230000000014832Este erro é conseqüência de falhas operacionais no processo de precificação dos serviços dos clientes, ocasionando desta forma erro de cobrança.                                                        093865221201504     
222000000550C  2015090111966A4E7797107B8BDA40C9B1F3CC5500005874269770ISENTO        ANGELA  MARIA DE ALMEIDA           AT21381670950000000033990000000033990000000008500010000000008500000000008502Este erro é conseqüência de falhas operacionais no processo de precificação dos serviços dos clientes, ocasionando desta forma erro de cobrança.                                                        2138167095          
222000000615UT 20151101F93EF26CA8C27E3CB645217608834C8D03379157000168ISENTO        MICRO LAPA EDICOES CULTURAIS LTDA  SP03379157000000000008910000000002120000000000530020000000000530000000000532Este erro é conseqüência de falhas operacionais no processo de precificação dos serviços dos clientes, ocasionando desta forma erro de cobrança.                                                        0337915700          
222000000616UT 201506012074FB7797C25B231D11228388A7C65659810838000193ISENTO        DAKOL INSTRUMENTOS E SISTEMAS LTDA SP59810838000000000001880000000001880000000000470010000000000470000000000472Este erro é conseqüência de falhas operacionais no processo de precificação dos serviços dos clientes, ocasionando desta forma erro de cobrança.                                                        00106616UT201506    
222000000620C  20150601363AAA4E5B3BD8F3F9AB4C0D0CA2490C02428624000130244618943110  TRIP - LINHAS AEREAS S/A           AT21101838430000000079800000000079800000000019950010000000019950000000019952Este erro é conseqüência de falhas operacionais no processo de precificação dos serviços dos clientes, ocasionando desta forma erro de cobrança.                                                        2110183843          
222000000640UT 201507010894DEF09908AF2DF8BFB88F4105374300033376123853ISENTO        OSWALDO IANNI                      SP33376123850000000005290000000003810000000000950070000000000950000000000472Este erro é conseqüência de falhas operacionais no processo de precificação dos serviços dos clientes, ocasionando desta forma erro de cobrança.                                                        00107640UT201507    
222000000653UT 20150801AEAB376B667D6CFCDAF064152E705CB154240379000136ISENTO        PONTUAL SERIGRAFIA S/C LTDA        SP54240379000000000008560000000002320000000000580020000000000580000000000222Este erro é conseqüência de falhas operacionais no processo de precificação dos serviços dos clientes, ocasionando desta forma erro de cobrança.                                                        00107653UT201508    
2220000006741  201505015A766D2A47112F0643B18840463B4E4300034100108826ISENTO        PRISCILA VOLPE DA SILVA            SP34100108820000000104000000000104000000000026000020000000026000000000008352Este erro é conseqüência de falhas operacionais no processo de precificação dos serviços dos clientes, ocasionando desta forma erro de cobrança.                                                        065196741201505     
222000000252UT 201505018E56D8F3EA7525B89D2CA6C64AB7B86008031834000176ISENTO        GRUPO SISTEMA ESCRITORIO CONTABIL SSP08031834000000000006150000000005810000000001450030000000001450000000001452Este erro é conseqüência de falhas operacionais no processo de precificação dos serviços dos clientes, ocasionando desta forma erro de cobrança.                                                        00054252UT201505    
2220000003211  2015050120B7614F4E6BC93B924EAC53F39FFB1D00024881570315ISENTO        CLAUDIA OLIVEIRA GONCALVES         SP24881570310000000052390000000081720000000020430040000000020430000000002152Este erro é conseqüência de falhas operacionais no processo de precificação dos serviços dos clientes, ocasionando desta forma erro de cobrança.                                                        095073211201505     
2220000003221  2015040160A350690045BDF02AC247C9287363E200024881570315ISENTO        CLAUDIA OLIVEIRA GONCALVES         SP24881570310000000083340000000081640000000020410050000000020410000000002132Este erro é conseqüência de falhas operacionais no processo de precificação dos serviços dos clientes, ocasionando desta forma erro de cobrança.                                                        095073221201504     
222000000386UT 2015080138D17E6B5924F705F686FE8A7663ACFE00012554323810ISENTO        MARCIO FINOTTI PELEGRINO           SP12554323810000000007030000000004730000000001180040000000001180000000000382Este erro é conseqüência de falhas operacionais no processo de precificação dos serviços dos clientes, ocasionando desta forma erro de cobrança.                                                        00089386UT201508    
222000000386UT 2015080138D17E6B5924F705F686FE8A7663ACFE00012554323810ISENTO        MARCIO FINOTTI PELEGRINO           SP12554323810000000007030000000004730000000001180030000000001180000000000722Este erro é conseqüência de falhas operacionais no processo de precificação dos serviços dos clientes, ocasionando desta forma erro de cobrança.                                                        00089386UT201508    
222000000390UT 2015070169D78A6AD8A0193CB1F2E214AF953A7A00012554323810ISENTO        MARCIO FINOTTI PELEGRINO           SP12554323810000000002300000000000410000000000100020000000000100000000000072Este erro é conseqüência de falhas operacionais no processo de precificação dos serviços dos clientes, ocasionando desta forma erro de cobrança.                                                        00089390UT201507    
222000000396C  20150701C17DD6616412967AA51FF46CD6069DF905149152000255103567267     TSE AUTOMA¿¿O INDUSTRIAL LTDA      AT02437384760000002658770000002429770000000607460070000000008900000000002232Este erro é conseqüência de falhas operacionais no processo de precificação dos serviços dos clientes, ocasionando desta forma erro de cobrança.                                                        243738476           
222000000412UT 201508011B894A6548CCC394211C7969F5B47C7462624002000109ISENTO        SPUMINHA IND E COMERCIO ME         SP62624002000000000000470000000000470000000000120020000000000120000000000122Este erro é conseqüência de falhas operacionais no processo de precificação dos serviços dos clientes, ocasionando desta forma erro de cobrança.                                                        00097412UT201508    
2220000004131  20151001AF70867B9BA98F89BF35DD39B99B0A6400034036064819ISENTO        WALLACE ROBERTO MANEDES SARAIVA    SP34036064810000000306540000000257240000000064320080000000011040000000002763Ocorre principalmente em função de erro humano no ato do cadastramento no sistema de faturamento do preço da tarifa constante do contrato fechado com o cliente.                                        3403606481          
222000000424UT 20150401205A1E98834259338435641E345B760962624002000109ISENTO        SPUMINHA IND E COMERCIO ME         SP62624002000000000007590000000000260000000000070030000000000070000000000072Este erro é conseqüência de falhas operacionais no processo de precificação dos serviços dos clientes, ocasionando desta forma erro de cobrança.                                                        00097424UT201504    
2220000005701  20150901D10FF43D7D96D949E0C8456A432537BA00020219113653ISENTO        SEBASTIAO SILVESTRE DE MIRANDA     SP20219113650000000117330000000115990000000029000030000000029000000000018652Este erro é conseqüência de falhas operacionais no processo de precificação dos serviços dos clientes, ocasionando desta forma erro de cobrança.                                                        093115701201509     
222000000611UT 201504019DEE22CAF804DCE447EBBF9EFC800E7468985100000158ISENTO        PUNTELUCE ILUMINACAO LTDA          SP68985100000000000006720000000000480000000000120020000000000120000000000122Este erro é conseqüência de falhas operacionais no processo de precificação dos serviços dos clientes, ocasionando desta forma erro de cobrança.                                                        00105611UT201504    
2220000006371  20150801A2723561CD4898C709B704C6604468DC00028153629883ISENTO        GILSON DIAS TEIXEIRA *             SP28153629880000000066030000000026130000000006530010000000006530000000001982Este erro é conseqüência de falhas operacionais no processo de precificação dos serviços dos clientes, ocasionando desta forma erro de cobrança.                                                        073786371201508     
2220000007031  20150801742024C5C56F1A6F7019CA07F173280800012108100857ISENTO        ZULMIRA PEREIRA GASPAR             SP12108100850000000202900000000135740000000033950060000000012900000000003232Este erro é conseqüência de falhas operacionais no processo de precificação dos serviços dos clientes, ocasionando desta forma erro de cobrança.                                                        002937031201508     
2220000007161  20150901167544E866EDCEDE47C609CBFFE5BA1D00037992722833ISENTO        EDSON HENRIQUE ALVES DO SANTOS     SP37992722830000000148580000000124110000000031030060000000014950000000003442Este erro é conseqüência de falhas operacionais no processo de precificação dos serviços dos clientes, ocasionando desta forma erro de cobrança.                                                        073487161201509     
222000000722UT 201505011647809F9AEFACCD1BF0A293EB08933B00066924758800ISENTO        WAGNER PEDRO BARBOSA               SP66924758800000000007770000000000440000000000110020000000000110000000000062Este erro é conseqüência de falhas operacionais no processo de precificação dos serviços dos clientes, ocasionando desta forma erro de cobrança.                                                        00108722UT201505    
222000000725UT 20151101950704AA30B4481AB9134344A270E41143511815000148ISENTO        CAMPANELLA SERVICOS AUTOMOTIVOS LTDSP43511815000000000005180000000005180000000001300020000000001300000000000972Este erro é conseqüência de falhas operacionais no processo de precificação dos serviços dos clientes, ocasionando desta forma erro de cobrança.                                                        4351181500          
2220000007561  20150801583B7A353C90FEE678EF6BEB1353D50500012758920867ISENTO        SARA CRISTINA GASPAR               SP12758920860000000085480000000015680000000003920030000000003920000000003922Este erro é conseqüência de falhas operacionais no processo de precificação dos serviços dos clientes, ocasionando desta forma erro de cobrança.                                                        073747561201508     
222000000761UT 20150401F182B5DEA5E38B53BA9DD1A98B22BB5354208053000121ISENTO        MONTESP COMERCIO E MONTAGENS LTDA  SP54208053000000000009680000000005220000000001310030000000001310000000001242Este erro é conseqüência de falhas operacionais no processo de precificação dos serviços dos clientes, ocasionando desta forma erro de cobrança.                                                        00109761UT201504    
222000000770UT 20151101C5BF29D61B450DA02A57518C56389C0E49318538000138ISENTO        COMERCIO DE FERRAMENTAS TERUYA LTDASP49318538000000000007780000000000990000000000250020000000000250000000000252Este erro é conseqüência de falhas operacionais no processo de precificação dos serviços dos clientes, ocasionando desta forma erro de cobrança.                                                        4931853800          
222000000230UT 2015050186E3D8442D115671489AD83D12D8C31103438514000111ISENTO        POLYBELT COM ACESS INDS LTDA       SP03438514000000000008260000000007410000000001850060000000001850000000000592Este erro é conseqüência de falhas operacionais no processo de precificação dos serviços dos clientes, ocasionando desta forma erro de cobrança.                                                        00051230UT201505    
2220000002371  20150901EDC95384F08670609D5B23B39375128800076291090830ISENTO        GUERCILIA DE OLIVEIRA              SP76291090830000000047220000000017320000000004340020000000004340000000003232Este erro é conseqüência de falhas operacionais no processo de precificação dos serviços dos clientes, ocasionando desta forma erro de cobrança.                                                        025152371201509     
222000000244UT 201510011BB8A2690BDB7B0EF2E8A95FB1CC340252168077000179ISENTO        ARFE CONTABIL S/C LTDA             SP52168077000000000007530000000000400000000000100060000000000100000000000102Este erro é conseqüência de falhas operacionais no processo de precificação dos serviços dos clientes, ocasionando desta forma erro de cobrança.                                                        5216807700          
222000000250UT 201504011708B53C638DEEB9831BA2C531A81FD202127580000108ISENTO        RR CONSULTORIA E ACESSORIA COMERCIASP02127580000000000005690000000005690000000001420010000000001420000000000592Este erro é conseqüência de falhas operacionais no processo de precificação dos serviços dos clientes, ocasionando desta forma erro de cobrança.                                                        00054250UT201504    
222000000276UT 20150401825E382F35DF43EC323506EC835E121103732430000196ISENTO        MOTEL 2000 LTDA                    SP03732430000000000005340000000005340000000001340010000000001340000000001342Este erro é conseqüência de falhas operacionais no processo de precificação dos serviços dos clientes, ocasionando desta forma erro de cobrança.                                                        00058276UT201504    
2220000003151  20150501F7C8387EAB047A1414BF5E3B983EC0F000031013124855ISENTO        JOSE ARNALDO LIMA DA SILVA         SP31013124850000000598050000000435170000000108800060000000108800000000054302Este erro é conseqüência de falhas operacionais no processo de precificação dos serviços dos clientes, ocasionando desta forma erro de cobrança.                                                        065563151201505     
2220000003221  2015040160A350690045BDF02AC247C9287363E200024881570315ISENTO        CLAUDIA OLIVEIRA GONCALVES         SP24881570310000000083340000000081640000000020410030000000020410000000018282Este erro é conseqüência de falhas operacionais no processo de precificação dos serviços dos clientes, ocasionando desta forma erro de cobrança.                                                        095073221201504     
222000000392UT 201506012D8D798D720DE28F4A9B7F09C560BF3200012554323810ISENTO        MARCIO FINOTTI PELEGRINO           SP12554323810000000001890000000001890000000000470010000000000470000000000472Este erro é conseqüência de falhas operacionais no processo de precificação dos serviços dos clientes, ocasionando desta forma erro de cobrança.                                                        00089392UT201506    
222000000439UT 20150601F949C227F19FA95C466EA23C805E45F353982781000123ISENTO        CHOPPERIA LIRICA LTDA              SP53982781000000000009310000000190130000000047530030000000047530000000002332Este erro é conseqüência de falhas operacionais no processo de precificação dos serviços dos clientes, ocasionando desta forma erro de cobrança.                                                        00100439UT201506    
222000000477UT 201510011BB5797EE54FE57F4BE6F9F6F15A666000463981000103ISENTO        MARCO ZERO CORRETORA DE SEGURO SC LSP00463981000000000003790000000003790000000000950020000000000680000000000172Este erro é conseqüência de falhas operacionais no processo de precificação dos serviços dos clientes, ocasionando desta forma erro de cobrança.                                                        0046398100          
2220000000461  20150801F129250666F311ED4CE93437C079522600089062752349ISENTO        FABIANA REGINA CORREIA MONTEIRO    SP89062752340000000096640000000093580000000023400030000000023400000000007482Este erro é conseqüência de falhas operacionais no processo de precificação dos serviços dos clientes, ocasionando desta forma erro de cobrança.                                                        03335461201508      
2220000000611  20151001FB0D723403A2F76C41A2C50949B7C30C00067066240634ISENTO        LUCINEIA APARECIDA VIEIRA DE ANDRADSP67066240630000001200370000001151260000000287840060000000152260000000038072Este erro é conseqüência de falhas operacionais no processo de precificação dos serviços dos clientes, ocasionando desta forma erro de cobrança.                                                        8892876943_20160108 
2220000000621  2015120105A076CF74C66044D2A6E5AA1E7C62F300067066240634ISENTO        LUCINEIA APARECIDA VIEIRA DE ANDRADSP67066240630000000341640000000292300000000073080030000000073080000000031162Este erro é conseqüência de falhas operacionais no processo de precificação dos serviços dos clientes, ocasionando desta forma erro de cobrança.                                                        8892876943_20160108 
222000000067UT 201509017C7B8D44A46EDA55CFA5D1B82440D52B03309388000103ISENTO        EMBRAPLAN ENGENHARIA LTDA          SP03309388000000001359200000001203940000000300990060000000300990000000093162Este erro é conseqüência de falhas operacionais no processo de precificação dos serviços dos clientes, ocasionando desta forma erro de cobrança.                                                        0002367UT201509     
2220000000681  201507018E05022A0C1FBEB2E2A08DDE6BB47C6900006089144878ISENTO        MARIA CELIA MENDES MIRANDA         SP06089144870000000126800000000025410000000006360040000000006360000000004672Este erro é conseqüência de falhas operacionais no processo de precificação dos serviços dos clientes, ocasionando desta forma erro de cobrança.                                                        06253681201507      
2220000000681  201511015495502017D5E3EEA5EE54DCD3F3129200006089144878ISENTO        MARIA CELIA MENDES MIRANDA         SP06089144870000000090310000000089900000000022480030000000022480000000008992Este erro é conseqüência de falhas operacionais no processo de precificação dos serviços dos clientes, ocasionando desta forma erro de cobrança.                                                        0608914487          
222000000087UT 2015110118DEFEC3D48FC6DF8A3F5711D11D1FA400076695166820ISENTO        NILSON TEIXEIRA DE SOUZA           SP76695166820000000008490000000001700000000000430020000000000430000000000152Este erro é conseqüência de falhas operacionais no processo de precificação dos serviços dos clientes, ocasionando desta forma erro de cobrança.                                                        7669516682          
222000000093UT 201506014FC367EF03994C28D7AA3EA28E1938F400076695166820ISENTO        NILSON TEIXEIRA DE SOUZA           SP76695166820000000008340000000002100000000000530030000000000530000000000442Este erro é conseqüência de falhas operacionais no processo de precificação dos serviços dos clientes, ocasionando desta forma erro de cobrança.                                                        0002593UT201506     
2220000001231  20150801CCBE432ADAE07C41D49B13AEF42DC72000013553819839ISENTO        FERNANDO PEIXOTO DE ALENCAR        SP13553819830000000052560000000065580000000016400020000000016400000000008922Este erro é conseqüência de falhas operacionais no processo de precificação dos serviços dos clientes, ocasionando desta forma erro de cobrança.                                                        036001231201508     
2220000001271  20150401ED8A777A318EAA0C911FD20ECBBDB6B800013553819839ISENTO        FERNANDO PEIXOTO DE ALENCAR        SP13553819830000000077220000000065840000000016470030000000016470000000001492Este erro é conseqüência de falhas operacionais no processo de precificação dos serviços dos clientes, ocasionando desta forma erro de cobrança.                                                        036001271201504     
222000000396C  20150701C17DD6616412967AA51FF46CD6069DF905149152000255103567267     TSE AUTOMA¿¿O INDUSTRIAL LTDA      AT02437384760000002658770000002429770000000607460080000000014560000000003642Este erro é conseqüência de falhas operacionais no processo de precificação dos serviços dos clientes, ocasionando desta forma erro de cobrança.                                                        243738476           
222000000396C  20150701C17DD6616412967AA51FF46CD6069DF905149152000255103567267     TSE AUTOMA¿¿O INDUSTRIAL LTDA      AT02437384760000002658770000002429770000000607460010000000129900000000032482Este erro é conseqüência de falhas operacionais no processo de precificação dos serviços dos clientes, ocasionando desta forma erro de cobrança.                                                        243738476           
222000000396C  20150701C17DD6616412967AA51FF46CD6069DF905149152000255103567267     TSE AUTOMA¿¿O INDUSTRIAL LTDA      AT02437384760000002658770000002429770000000607460040000000607460000000159492Este erro é conseqüência de falhas operacionais no processo de precificação dos serviços dos clientes, ocasionando desta forma erro de cobrança.                                                        243738476           
222000000419UT 2015050112D7125584F2276DC64AA27D5961ADA108270798000101ISENTO        COOPERLINGUAS COOPERATIVA DE PROFESSP08270798000000000008050000000001810000000000450020000000000450000000000452Este erro é conseqüência de falhas operacionais no processo de precificação dos serviços dos clientes, ocasionando desta forma erro de cobrança.                                                        00096419UT201505    
2220000004501  20150801A74A1AAE20544454BB2A87B8FF938CE200040180287842ISENTO        FERNANDO CAVALCANTE ARAUJO         SP40180287840000000115760000000115760000000028940020000000028940000000010423Ocorre principalmente em função de erro humano no ato do cadastramento no sistema de faturamento do preço da tarifa constante do contrato fechado com o cliente.                                        064424501201508     
222000000457UT 201508016C16254F19B463F0D8821A56C6D09A6373986655000154ISENTO        WCA COMERCIO E SERVICOS EM INFORMATSP73986655000000000007410000000001170000000000290020000000000290000000000292Este erro é conseqüência de falhas operacionais no processo de precificação dos serviços dos clientes, ocasionando desta forma erro de cobrança.                                                        00101457UT201508    
222000000463UT 20151101B2850383F2726B37EB4D5F923FFE641456710270000140ISENTO        LABORFIX LABORATORIO DE PROTESE DENSP56710270000000000008530000000001740000000000440020000000000440000000000442Este erro é conseqüência de falhas operacionais no processo de precificação dos serviços dos clientes, ocasionando desta forma erro de cobrança.                                                        5671027000          
2220000005171  20150901707B59DF3802EACA4B3D603C34F4690D00077105370300ISENTO        RICARDO ALEXANDRE DE FREITAS BARROSSP77105370300000000161990000000141990000000035500020000000035500000000008052Este erro é conseqüência de falhas operacionais no processo de precificação dos serviços dos clientes, ocasionando desta forma erro de cobrança.                                                        062575171201509     
2220000005211  201505010C308A883EF9D296621AEEBBE1C582C100027328574836ISENTO        PRISCILA HERNANDES                 SP27328574830000000066960000000066960000000016740010000000005590000000001402Este erro é conseqüência de falhas operacionais no processo de precificação dos serviços dos clientes, ocasionando desta forma erro de cobrança.                                                        093865211201505     
222000000523UT 20151101C32381E3ADCC749473E22E196677C15705354941000147ISENTO        TOM HARA VIAGENS E TURISMO LTDA    SP05354941000000000008880000000002090000000000520020000000000520000000000522Este erro é conseqüência de falhas operacionais no processo de precificação dos serviços dos clientes, ocasionando desta forma erro de cobrança.                                                        0535494100          
222000000702UT 2015110129FE16C6D29B19CBC928FC22503DF14900063526310882ISENTO        MILTON DELGADO RUIZ                SP63526310880000000003830000000000520000000000130020000000000130000000000132Este erro é conseqüência de falhas operacionais no processo de precificação dos serviços dos clientes, ocasionando desta forma erro de cobrança.                                                        6352631088          
222000000722UT 201505011647809F9AEFACCD1BF0A293EB08933B00066924758800ISENTO        WAGNER PEDRO BARBOSA               SP66924758800000000007770000000000440000000000110040000000000110000000000052Este erro é conseqüência de falhas operacionais no processo de precificação dos serviços dos clientes, ocasionando desta forma erro de cobrança.                                                        00108722UT201505    
222000000725UT 20151101950704AA30B4481AB9134344A270E41143511815000148ISENTO        CAMPANELLA SERVICOS AUTOMOTIVOS LTDSP43511815000000000005180000000005180000000001300010000000001300000000000332Este erro é conseqüência de falhas operacionais no processo de precificação dos serviços dos clientes, ocasionando desta forma erro de cobrança.                                                        4351181500          
222000000759UT 20150901E45A100ACB5B54F301CF7C2808D5EBCC43297852000103ISENTO        AVANCO S/A INDUSTRIA E COMERCIO DE SP43297852000000000007230000000004740000000001190020000000001190000000001142Este erro é conseqüência de falhas operacionais no processo de precificação dos serviços dos clientes, ocasionando desta forma erro de cobrança.                                                        00110759UT201509    
222000000761UT 20150401F182B5DEA5E38B53BA9DD1A98B22BB5354208053000121ISENTO        MONTESP COMERCIO E MONTAGENS LTDA  SP54208053000000000009680000000005220000000001310040000000000270000000000072Este erro é conseqüência de falhas operacionais no processo de precificação dos serviços dos clientes, ocasionando desta forma erro de cobrança.                                                        00109761UT201504    
2220000007751  20150401D4BF3923719F006E897A8BD0208F5A8500011764039823ISENTO        VANIA APARECIDA PLACONA SHOJI *    SP11764039820000000121870000000121870000000030480090000000030480000000005002Este erro é conseqüência de falhas operacionais no processo de precificação dos serviços dos clientes, ocasionando desta forma erro de cobrança.                                                        001967751201504     
222000000793UT 20151001618176C675EFD9F87F7FBC8C8EEA80CF58088204000106ISENTO        DICOOMPEL INDUSTRIA E COMERCIO LTDASP58088204000000000007210000000000420000000000110020000000000110000000000112Este erro é conseqüência de falhas operacionais no processo de precificação dos serviços dos clientes, ocasionando desta forma erro de cobrança.                                                        5808820400          
222000000805UT 20150701D16B0E9499C32D26095C6B43AE9E639549318538000138ISENTO        COMERCIO DE FERRAMENTAS TERUYA LTDASP49318538000000000007400000000001360000000000340030000000000260000000000062Este erro é conseqüência de falhas operacionais no processo de precificação dos serviços dos clientes, ocasionando desta forma erro de cobrança.                                                        00110805UT201507    
222000000817UT 20150801900EB96E662E1879590608804D9ABAF558088204000106ISENTO        DICOMPEL INDUSTRIA E COMERCIO LTDA SP58088204000000000007090000000000850000000000210020000000000210000000000212Este erro é conseqüência de falhas operacionais no processo de precificação dos serviços dos clientes, ocasionando desta forma erro de cobrança.                                                        00110817UT201508    
2220000008951  201509017E05B1079A38B9A62AAC4AF047479DAB00091683483200ISENTO        DOUGLAS PEREIRA GOMES              SP91683483200000000090930000000061030000000015270020000000015270000000000292Este erro é conseqüência de falhas operacionais no processo de precificação dos serviços dos clientes, ocasionando desta forma erro de cobrança.                                                        065438951201509     
2220000000061  201506018A4FA7D77A232077C404C4CCCCE6240F00043220959768ISENTO        ALMIRO RODRIGUES DOS SANTOS        SP43220959760000000053700000000039190000000009800010000000009800000000009482Este erro é conseqüência de falhas operacionais no processo de precificação dos serviços dos clientes, ocasionando desta forma erro de cobrança.                                                        0891961201506       
2220000000461  2015100161CF0DBAE59C71A95DA762670521B4C800097042579887ISENTO        NILTON COUTINHO                    SP97042579880000000137080000000094800000000023700030000000023700000000001592Este erro é conseqüência de falhas operacionais no processo de precificação dos serviços dos clientes, ocasionando desta forma erro de cobrança.                                                        9704257988          
2220000000611  201507016770AA894AEDA63A506D8134E165095F00067066240634ISENTO        LUCINEIA APARECIDA VIEIRA DE ANDRADSP67066240630000000272650000000215690000000053930060000000031590000000007902Este erro é conseqüência de falhas operacionais no processo de precificação dos serviços dos clientes, ocasionando desta forma erro de cobrança.                                                        08892611201507      
2220000000611  20151001FB0D723403A2F76C41A2C50949B7C30C00067066240634ISENTO        LUCINEIA APARECIDA VIEIRA DE ANDRADSP67066240630000001200370000001151260000000287840080000000132060000000033022Este erro é conseqüência de falhas operacionais no processo de precificação dos serviços dos clientes, ocasionando desta forma erro de cobrança.                                                        8892876943_20160108 
2220000000611  20151101698E0087130757649567674C2B594A8F00067066240634ISENTO        LUCINEIA APARECIDA VIEIRA DE ANDRADSP67066240630000000530660000000484440000000121140040000000076840000000017272Este erro é conseqüência de falhas operacionais no processo de precificação dos serviços dos clientes, ocasionando desta forma erro de cobrança.                                                        8892876943_20160108 
2220000000611  20151101698E0087130757649567674C2B594A8F00067066240634ISENTO        LUCINEIA APARECIDA VIEIRA DE ANDRADSP67066240630000000530660000000484440000000121140030000000121140000000041002Este erro é conseqüência de falhas operacionais no processo de precificação dos serviços dos clientes, ocasionando desta forma erro de cobrança.                                                        8892876943_20160108 
2220000000621  2015120105A076CF74C66044D2A6E5AA1E7C62F300067066240634ISENTO        LUCINEIA APARECIDA VIEIRA DE ANDRADSP67066240630000000341640000000292300000000073080020000000073080000000021942Este erro é conseqüência de falhas operacionais no processo de precificação dos serviços dos clientes, ocasionando desta forma erro de cobrança.                                                        8892876943_20160108 
2220000001841  20150801D6B9B733FB6CCA8FA622427ADBEBD77800033629279805ISENTO        WILLIAN ROBERTO LOPES LESSA        SP33629279800000000012870000000001350000000000340010000000000340000000000342Este erro é conseqüência de falhas operacionais no processo de precificação dos serviços dos clientes, ocasionando desta forma erro de cobrança.                                                        077481841201508     
222000000223UT 201508017BFB58DF09FE314554E287ABB50E14C003438514000111ISENTO        POLY BELT COMERCIO DE ACESSORIOS INSP03438514000000000001550000000001550000000000390030000000000390000000000392Este erro é conseqüência de falhas operacionais no processo de precificação dos serviços dos clientes, ocasionando desta forma erro de cobrança.                                                        00051223UT201508    
222000000242UT 201509013A6EB8D5EDC29AA5B29C96428F698A6402127580000108ISENTO        RR CONSULTORIA E ACESSORIA COMERCIASP02127580000000000002690000000002300000000000580020000000000580000000000582Este erro é conseqüência de falhas operacionais no processo de precificação dos serviços dos clientes, ocasionando desta forma erro de cobrança.                                                        00054242UT201509    
222000000046UT 201511013698F4271DE8F9DF16FB8102AA45A92164498728000178ISENTO        TUTTO BENE PIZZARIA LTDA ME        SP64498728000000000007030000000000240000000000060020000000000060000000000062Este erro é conseqüência de falhas operacionais no processo de precificação dos serviços dos clientes, ocasionando desta forma erro de cobrança.                                                        6449872800          
2220000000611  20151001FB0D723403A2F76C41A2C50949B7C30C00067066240634ISENTO        LUCINEIA APARECIDA VIEIRA DE ANDRADSP67066240630000001200370000001151260000000287840120000000012900000000003232Este erro é conseqüência de falhas operacionais no processo de precificação dos serviços dos clientes, ocasionando desta forma erro de cobrança.                                                        8892876943_20160108 
2220000000611  20151001FB0D723403A2F76C41A2C50949B7C30C00067066240634ISENTO        LUCINEIA APARECIDA VIEIRA DE ANDRADSP67066240630000001200370000001151260000000287840040000000258870000000064722Este erro é conseqüência de falhas operacionais no processo de precificação dos serviços dos clientes, ocasionando desta forma erro de cobrança.                                                        8892876943_20160108 
2220000000611  20151001FB0D723403A2F76C41A2C50949B7C30C00067066240634ISENTO        LUCINEIA APARECIDA VIEIRA DE ANDRADSP67066240630000001200370000001151260000000287840050000000287840000000093452Este erro é conseqüência de falhas operacionais no processo de precificação dos serviços dos clientes, ocasionando desta forma erro de cobrança.                                                        8892876943_20160108 
2220000000611  20151101698E0087130757649567674C2B594A8F00067066240634ISENTO        LUCINEIA APARECIDA VIEIRA DE ANDRADSP67066240630000000530660000000484440000000121140020000000121140000000044202Este erro é conseqüência de falhas operacionais no processo de precificação dos serviços dos clientes, ocasionando desta forma erro de cobrança.                                                        8892876943_20160108 
222000000093UT 2015040113667C105551DAFC877ADA45334A5AC500076695166820ISENTO        NILSON TEIXEIRA DE SOUZA           SP76695166820000000007170000000000930000000000230030000000000230000000000132Este erro é conseqüência de falhas operacionais no processo de precificação dos serviços dos clientes, ocasionando desta forma erro de cobrança.                                                        0002593UT201504     
2220000000961  201510014198D55C7E55059A1985A254F4015AAD00060141280859ISENTO        VALDIR PEREIRA DA SILVA            SP60141280850000000479530000000444730000000111200050000000111200000000082832Este erro é conseqüência de falhas operacionais no processo de precificação dos serviços dos clientes, ocasionando desta forma erro de cobrança.                                                        6014128085          
2220000001021  201506011A9B0AE9AE698B204E18E51CCDF486F200018307526850ISENTO        JOSE MARCO BATISTA SANTOS          SP18307526850000000070580000000064470000000016120060000000016120000000008642Este erro é conseqüência de falhas operacionais no processo de precificação dos serviços dos clientes, ocasionando desta forma erro de cobrança.                                                        093501021201506     
2220000001371  201508010B7AF4868CCF6C84CAC4A6433D26DBFA00024926486806ISENTO        ROBERTO ANDRADE SANTANA            SP24926486800000000053660000000052960000000013250040000000013250000000004982Este erro é conseqüência de falhas operacionais no processo de precificação dos serviços dos clientes, ocasionando desta forma erro de cobrança.                                                        048901371201508     
222000000229UT 20150501C2403061DF1EDA3E840D9B9EDF6C580503438514000111ISENTO        POLYBELT COM ACESS INDS LTDA       SP03438514000000000009210000000002470000000000620060000000000050000000000012Este erro é conseqüência de falhas operacionais no processo de precificação dos serviços dos clientes, ocasionando desta forma erro de cobrança.                                                        00051229UT201505    
2220000004411  20151101696F8F50C4ADA03729907469603DAA6A00040180287842ISENTO        FERNANDO CAVALCANTE ARAUJO         SP40180287840000000122740000000109240000000027310050000000027310000000011262Este erro é conseqüência de falhas operacionais no processo de precificação dos serviços dos clientes, ocasionando desta forma erro de cobrança.                                                        4018028784          
222000000464UT 2015060168A943AEB78FD1CA391B4AA883128D0873986655000154ISENTO        WCA COMERCIO E SERVICOS EM INFORMATSP73986655000000000007080000000000840000000000210020000000000210000000000212Este erro é conseqüência de falhas operacionais no processo de precificação dos serviços dos clientes, ocasionando desta forma erro de cobrança.                                                        00101464UT201506    
2220000005181  20151001995FA17D17EC2235524717B5C9B98C8A00077105370300ISENTO        RICARDO ALEXANDRE DE FREITAS BARROSSP77105370300000000144890000000105600000000026400030000000022930000000003082Este erro é conseqüência de falhas operacionais no processo de precificação dos serviços dos clientes, ocasionando desta forma erro de cobrança.                                                        7710537030          
222000000557UT 2015050104D8B9A79EFBEA5963EAAFACE3BE704507103067000109ISENTO        FLEXY ADMINISTRACAO DE HOTEIS E RESSP07103067000000000005260000000004590000000001150030000000001150000000001042Este erro é conseqüência de falhas operacionais no processo de precificação dos serviços dos clientes, ocasionando desta forma erro de cobrança.                                                        00103557UT201505    
222000000558UT 20150401F39E7749D6871D58EC32ECF0795D196A43363118000197ISENTO        STUDIO PETER MICHAEL S C LTDA      SP43363118000000000009800000000003560000000000890030000000000890000000000392Este erro é conseqüência de falhas operacionais no processo de precificação dos serviços dos clientes, ocasionando desta forma erro de cobrança.                                                        00103558UT201504    
222000000566UT 201507017E1D4A748AA29A444576F78E4848BAD262120282000118ISENTO        CANTINA DO GIOVANNI BRUNO LTDA     SP62120282000000000007320000000000420000000000110030000000000110000000000112Este erro é conseqüência de falhas operacionais no processo de precificação dos serviços dos clientes, ocasionando desta forma erro de cobrança.                                                        00104566UT201507    
222000000642C  20150501325DA5581196EDFABAE16463949827E102428624000130244618943110  TRIP - LINHAS AEREAS S/A           AT21101838430000000079800000000079800000000019950010000000019950000000019952Este erro é conseqüência de falhas operacionais no processo de precificação dos serviços dos clientes, ocasionando desta forma erro de cobrança.                                                        2110183843          
222000000653UT 20150801AEAB376B667D6CFCDAF064152E705CB154240379000136ISENTO        PONTUAL SERIGRAFIA S/C LTDA        SP54240379000000000008560000000002320000000000580030000000000580000000000362Este erro é conseqüência de falhas operacionais no processo de precificação dos serviços dos clientes, ocasionando desta forma erro de cobrança.                                                        00107653UT201508    
2220000006741  201505015A766D2A47112F0643B18840463B4E4300034100108826ISENTO        PRISCILA VOLPE DA SILVA            SP34100108820000000104000000000104000000000026000010000000026000000000017652Este erro é conseqüência de falhas operacionais no processo de precificação dos serviços dos clientes, ocasionando desta forma erro de cobrança.                                                        065196741201505     
2220000007031  20150801742024C5C56F1A6F7019CA07F173280800012108100857ISENTO        ZULMIRA PEREIRA GASPAR             SP12108100850000000202900000000135740000000033950100000000000900000000000232Este erro é conseqüência de falhas operacionais no processo de precificação dos serviços dos clientes, ocasionando desta forma erro de cobrança.                                                        002937031201508     
222000000775UT 2015080119839DA8DD0EBD02595D7EF48310E79E43297852000103ISENTO        AVANCO S/A INDUSTRIA E COMERCIO DE SP43297852000000000002490000000002490000000000620010000000000620000000000622Este erro é conseqüência de falhas operacionais no processo de precificação dos serviços dos clientes, ocasionando desta forma erro de cobrança.                                                        00110775UT201508    
222000000782UT 2015090182C7C2D18EA6DE14FE2E3690CA22E47249318538000138ISENTO        COMERCIO DE FERRAMENTAS TERUYA LTDASP49318538000000000007100000000000310000000000080020000000000080000000000082Este erro é conseqüência de falhas operacionais no processo de precificação dos serviços dos clientes, ocasionando desta forma erro de cobrança.                                                        00110782UT201509    
2220000008041  20150501E1F5AE75039D5637549FD17EEE896BFF00034474126823ISENTO        ALEXANDRA PEREIRA SANTOS           SP34474126820000000091210000000017050000000004260030000000004260000000003392Este erro é conseqüência de falhas operacionais no processo de precificação dos serviços dos clientes, ocasionando desta forma erro de cobrança.                                                        077378041201505     
222000000805UT 20150701D16B0E9499C32D26095C6B43AE9E639549318538000138ISENTO        COMERCIO DE FERRAMENTAS TERUYA LTDASP49318538000000000007400000000001360000000000340040000000000340000000000282Este erro é conseqüência de falhas operacionais no processo de precificação dos serviços dos clientes, ocasionando desta forma erro de cobrança.                                                        00110805UT201507    
2220000008421  201509017983A0D094672309204FFE370EAB900500092953166572ISENTO        LOURIVALDO NOVAES FREITAS          SP92953166570000000204620000000197290000000049340110000000049340000000005292Este erro é conseqüência de falhas operacionais no processo de precificação dos serviços dos clientes, ocasionando desta forma erro de cobrança.                                                        033468421201509     
222000000872UT 2015040147DEF08E49C4C8D0213624315172048B50239144000173ISENTO        SIEL SISTEMAS INDUSTRIAIS DE EXAUSTSP50239144000000000007420000000001380000000000350040000000000350000000000262Este erro é conseqüência de falhas operacionais no processo de precificação dos serviços dos clientes, ocasionando desta forma erro de cobrança.                                                        00110872UT201504    
222000000909UT 2015040176CF46C02484D45EB829F7D89F239B5B53693347000123ISENTO        ADEMIR MARTELI                     SP53693347000000000008480000000000260000000000070020000000000070000000000072Este erro é conseqüência de falhas operacionais no processo de precificação dos serviços dos clientes, ocasionando desta forma erro de cobrança.                                                        00111909UT201504    
222000000922UT 2015080156DA632357E2475D676DB3C6412E54A100068152442887ISENTO        JOSE REINALDO DE FREITAS           SP68152442880000000008510000000008130000000002030050000000002030000000001332Este erro é conseqüência de falhas operacionais no processo de precificação dos serviços dos clientes, ocasionando desta forma erro de cobrança.                                                        00111922UT201508    
222000000967UT 2015110153DCC36EB76A16A1292A9AEDD62F4E8200032232805883ISENTO        RODRIGO FALDA MOURA                SP32232805880000000005350000000001330000000000330040000000000330000000000272Este erro é conseqüência de falhas operacionais no processo de precificação dos serviços dos clientes, ocasionando desta forma erro de cobrança.                                                        3223280588          
222000000996UT 20150801871E800D7AEF743B9BC6A6C258C96A1D61029302000187ISENTO        TOLDOS DA SOLE INDUSTRIA E COMERCIOSP61029302000000000008110000000001870000000000470040000000000180000000000052Este erro é conseqüência de falhas operacionais no processo de precificação dos serviços dos clientes, ocasionando desta forma erro de cobrança.                                                        00112996UT201508    
222000000899C  20150901B2C4E2AEB58E361B60905B1DC0F9FF1000057898634934ISENTO        JO¿O  FELIPE REIS DA SILVA         AT02205895360000000044990000000044990000000011250010000000011250000000000072Este erro é conseqüência de falhas operacionais no processo de precificação dos serviços dos clientes, ocasionando desta forma erro de cobrança.                                                        220589536           
222000000899UT 20151001CA7DA273EBB2691979A7263B71AE939B00051380790859ISENTO        FRANCISCO GARCIA DA SILVA          SP51380790850000000003850000000215980000000054000030000000054000000000000962Este erro é conseqüência de falhas operacionais no processo de precificação dos serviços dos clientes, ocasionando desta forma erro de cobrança.                                                        5138079085          
2220000009431  20151001DCE091FA9107A86498858557E8E3515E00026818713874ISENTO        OSNILDA MARIA DE ASSIS             SP26818713870000000134620000000115330000000028850060000000015000000000003752Este erro é conseqüência de falhas operacionais no processo de precificação dos serviços dos clientes, ocasionando desta forma erro de cobrança.                                                        2681871387          
222000000957UT 2015050134CC758AD3C47B8BAB4657D1F2C94F6900002971321800ISENTO        JOSE ROBERTO DE SOUZA BARATELLA    SP02971321800000000007560000000007560000000001890020000000001890000000001562Este erro é conseqüência de falhas operacionais no processo de precificação dos serviços dos clientes, ocasionando desta forma erro de cobrança.                                                        00111957UT201505    
222000000971UT 201510012442BDA8974D507101F181FD4984A44061029302000187ISENTO        TOLDOS DA SOLE INDUSTRIA E COMERCIOSP61029302000000000008510000000001720000000000430020000000000430000000000192Este erro é conseqüência de falhas operacionais no processo de precificação dos serviços dos clientes, ocasionando desta forma erro de cobrança.                                                        6102930200          
222000000976UT 20150901DCB23FF722FC739F6BC053C8A1B71A9100050816411891ISENTO        ANGELO COVRE                       SP50816411890000000009130000000009130000000002280030000000000230000000000052Este erro é conseqüência de falhas operacionais no processo de precificação dos serviços dos clientes, ocasionando desta forma erro de cobrança.                                                        00112976UT201509    
222000000976UT 20150901DCB23FF722FC739F6BC053C8A1B71A9100050816411891ISENTO        ANGELO COVRE                       SP50816411890000000009130000000009130000000002280050000000002280000000001732Este erro é conseqüência de falhas operacionais no processo de precificação dos serviços dos clientes, ocasionando desta forma erro de cobrança.                                                        00112976UT201509    
222000000985C  201506012675C4CD871F0FE2FCD0F01EE44CA1B500007689984681ISENTO        MARIA  ISABEL JUSTINO EMILIO       AT02317437780000000021340000000021340000000005340010000000005340000000005342Este erro é conseqüência de falhas operacionais no processo de precificação dos serviços dos clientes, ocasionando desta forma erro de cobrança.                                                        231743778           
222000001013UT 201505018255237A01585F095BCC069A2FAD4FC200050816411891ISENTO        ANGELO COVRE                       SP50816411890000000000670000000000480000000000120020000000000120000000000122Este erro é conseqüência de falhas operacionais no processo de precificação dos serviços dos clientes, ocasionando desta forma erro de cobrança.                                                        001121013UT201505   
222000001018UT 2015040167D3299FBA39D971DA26EDA18A428B3B00050816411891ISENTO        ANGELO COVRE                       SP50816411890000000000190000000000190000000000050010000000000050000000000052Este erro é conseqüência de falhas operacionais no processo de precificação dos serviços dos clientes, ocasionando desta forma erro de cobrança.                                                        001121018UT201504   
2220000007281  201508013C120270BE08460E7AEC765554385EC200037992722833ISENTO        EDSON HENRIQUE ALVES DO SANTOS     SP37992722830000000137200000000121660000000030420040000000011610000000002832Este erro é conseqüência de falhas operacionais no processo de precificação dos serviços dos clientes, ocasionando desta forma erro de cobrança.                                                        073487281201508     
222000000746UT 20150501309FB4891A1E4742F7E79585C69CD4D900063526310882ISENTO        MILTON DELGADO RUIZ                SP63526310880000000001870000000001870000000000470020000000000470000000000392Este erro é conseqüência de falhas operacionais no processo de precificação dos serviços dos clientes, ocasionando desta forma erro de cobrança.                                                        00109746UT201505    
222000000787UT 201506014F8A9BBE5343F819A6803EA9A744882B43297852000103ISENTO        AVANCO S/A INDUSTRIA E COMERCIO DE SP43297852000000000008640000000002710000000000680020000000000680000000000682Este erro é conseqüência de falhas operacionais no processo de precificação dos serviços dos clientes, ocasionando desta forma erro de cobrança.                                                        00110787UT201506    
222000000864C  20150901D5921EAFCDD3B046428C0E4776C83C5600020512579814ISENTO        ANDREIA  GOMES MENDES DE MELLO     AT02168413580000000054990000000054990000000013750010000000013750000000013752Este erro é conseqüência de falhas operacionais no processo de precificação dos serviços dos clientes, ocasionando desta forma erro de cobrança.                                                        67599822            
2220000009431  20151001DCE091FA9107A86498858557E8E3515E00026818713874ISENTO        OSNILDA MARIA DE ASSIS             SP26818713870000000134620000000115330000000028850070000000028850000000007472Este erro é conseqüência de falhas operacionais no processo de precificação dos serviços dos clientes, ocasionando desta forma erro de cobrança.                                                        2681871387          
222000000948UT 20150901A8AF95BDD64C60A0AA21EFDEDA6AC61500011823881831ISENTO        CRISTIANE PERES SORIANO *          SP11823881830000000002250000000002250000000000560010000000000550000000000132Este erro é conseqüência de falhas operacionais no processo de precificação dos serviços dos clientes, ocasionando desta forma erro de cobrança.                                                        00112948UT201509    
222000000950UT 2015080151E9DE99216D13C5ECD3CCFEFCDAF7F361366803000159ISENTO        TECELAGEM NOSSA SENHORA DE LOURDES SP61366803000000000127630000000127630000000031910010000000031910000000031912Este erro é conseqüência de falhas operacionais no processo de precificação dos serviços dos clientes, ocasionando desta forma erro de cobrança.                                                        112061443_20160520  
222000000956UT 20150801FE476AE53A8D1A55DA6A85D4EBE16A6862943121000124ISENTO        NIQUELACAO CROMAZINCO LTDA         SP62943121000000000008860000000002020000000000510030000000000510000000000432Este erro é conseqüência de falhas operacionais no processo de precificação dos serviços dos clientes, ocasionando desta forma erro de cobrança.                                                        00112956UT201508    
222000000957UT 2015050134CC758AD3C47B8BAB4657D1F2C94F6900002971321800ISENTO        JOSE ROBERTO DE SOUZA BARATELLA    SP02971321800000000007560000000007560000000001890010000000001340000000000332Este erro é conseqüência de falhas operacionais no processo de precificação dos serviços dos clientes, ocasionando desta forma erro de cobrança.                                                        00111957UT201505    
222000000963UT 20150701FB4DE51D816FA4E03B4361CAFA79CEEF62943121000124ISENTO        NIQUELACAO CROMAZINCO LTDA         SP62943121000000000006840000000006840000000001710010000000001710000000001712Este erro é conseqüência de falhas operacionais no processo de precificação dos serviços dos clientes, ocasionando desta forma erro de cobrança.                                                        00112963UT201507    
2220000010091  201506017ABEBB2E0DD3EC4B1EAC03C0FF1C754200031989163807ISENTO        GISELE RODRIGUES SIMOES            SP31989163800000000092750000000092750000000023190040000000023190000000002872Este erro é conseqüência de falhas operacionais no processo de precificação dos serviços dos clientes, ocasionando desta forma erro de cobrança.                                                        0751110091201506    
222000001009UT 20151201E7587FAC2B9ACFA00C06696B9A1D931005263581000178ISENTO        ARTIGOS RELIGIOSOS P S O LTDA ME   SP05263581000000000241570000000241570000000060390100000000000220000000000062Este erro é conseqüência de falhas operacionais no processo de precificação dos serviços dos clientes, ocasionando desta forma erro de cobrança.                                                        112690220_20160121  
222000001018UT 201505013D308B07D9C7CE63EDB98564265C24D561029302000187ISENTO        TOLDOS DA SOLE INDUSTRIA E COMERCIOSP61029302000000000007340000000001100000000000280030000000000260000000000072Este erro é conseqüência de falhas operacionais no processo de precificação dos serviços dos clientes, ocasionando desta forma erro de cobrança.                                                        001121018UT201505   
2220000010341  20150701BBD6EAE3753F18DA19EAD3BC447535C600017681091840ISENTO        ADALBERTO ALVES DOS SANTOS         SP17681091840000000176380000000170410000000042600050000000042600000000013502Este erro é conseqüência de falhas operacionais no processo de precificação dos serviços dos clientes, ocasionando desta forma erro de cobrança.                                                        0729810341201507    
2220000010651  2015120175A49A2F2608AAEAE6EFAF6EB416978100022280349833ISENTO        SIRLEI FAUSTINO                    SP22280349830000000111240000000111240000000027820020000000027820000000010732Este erro é conseqüência de falhas operacionais no processo de precificação dos serviços dos clientes, ocasionando desta forma erro de cobrança.                                                        6400946512_20160103 
2220000010681  20151101D01FC5A40AE3AEFBCBEFFB5DAB63155400022280349833ISENTO        SIRLEI FAUSTINO                    SP22280349830000000110980000000110980000000027750010000000027750000000017022Este erro é conseqüência de falhas operacionais no processo de precificação dos serviços dos clientes, ocasionando desta forma erro de cobrança.                                                        6400946512_20160103 
222000001083UT 201508010A82F8EC46AD38DF08DA27D982E0FF6200026952988890ISENTO        PRISCILA RECHE                     SP26952988890000000000950000000000950000000000240010000000000240000000000242Este erro é conseqüência de falhas operacionais no processo de precificação dos serviços dos clientes, ocasionando desta forma erro de cobrança.                                                        001121083UT201508   
222000001088UT 20150701EB964F4FE30F75C4655B7E5AC07E532C73016099000193ISENTO        CARDOVAL VALVULAS E CONCEXOES LTDA SP73016099000000000009340000000003100000000000780050000000000780000000000232Este erro é conseqüência de falhas operacionais no processo de precificação dos serviços dos clientes, ocasionando desta forma erro de cobrança.                                                        001121088UT201507   
2220000010921  20151101A36134C2CB819E45551002CFBC22B86700030808212893ISENTO        CREUSANEI DE OLIVEIRA DE SANTANA   SP30808212890000000041590000000038560000000009650090000000009620000000002412Este erro é conseqüência de falhas operacionais no processo de precificação dos serviços dos clientes, ocasionando desta forma erro de cobrança.                                                        7602856407_20160128 
2220000011041  20151001326CF62FD0336910595C1798178F434A00030808212893ISENTO        CREUSANEI DE OLIVEIRA DE SANTANA   SP30808212890000000085700000000054160000000013540060000000013540000000003472Este erro é conseqüência de falhas operacionais no processo de precificação dos serviços dos clientes, ocasionando desta forma erro de cobrança.                                                        3080821289          
222000000972UT 201510018D72C8D73FE24089AAF1274A7B2EDF8C00032232805883ISENTO        RODRIGO FALDA MOURA                SP32232805880000000004020000000001000000000000250030000000000250000000000252Este erro é conseqüência de falhas operacionais no processo de precificação dos serviços dos clientes, ocasionando desta forma erro de cobrança.                                                        3223280588          
222000000982UT 2015090126B41EB9B49D2C9860C86D987782766100032232805883ISENTO        RODRIGO FALDA MOURA                SP32232805880000000003020000000003020000000000760020000000000400000000000102Este erro é conseqüência de falhas operacionais no processo de precificação dos serviços dos clientes, ocasionando desta forma erro de cobrança.                                                        00112982UT201509    
222000000996UT 20150801871E800D7AEF743B9BC6A6C258C96A1D61029302000187ISENTO        TOLDOS DA SOLE INDUSTRIA E COMERCIOSP61029302000000000008110000000001870000000000470020000000000470000000000202Este erro é conseqüência de falhas operacionais no processo de precificação dos serviços dos clientes, ocasionando desta forma erro de cobrança.                                                        00112996UT201508    
222000001065UT 2015090171EE1AB6621193E57B4A4CF2C997BB7300026952988890ISENTO        PRISCILA RECHE                     SP26952988890000000005820000000004870000000001220020000000001220000000001222Este erro é conseqüência de falhas operacionais no processo de precificação dos serviços dos clientes, ocasionando desta forma erro de cobrança.                                                        001121065UT201509   
2220000010681  20151101D01FC5A40AE3AEFBCBEFFB5DAB63155400022280349833ISENTO        SIRLEI FAUSTINO                    SP22280349830000000110980000000110980000000027750020000000027750000000010732Este erro é conseqüência de falhas operacionais no processo de precificação dos serviços dos clientes, ocasionando desta forma erro de cobrança.                                                        6400946512_20160103 
222000001078UT 20151101E67E4F551BA57E6D11018D771947C0F060530722000180ISENTO        CBIT CIA BRASILEIRA ISOLANTES TERMISP60530722000000000008100000000001720000000000430030000000000430000000000262Este erro é conseqüência de falhas operacionais no processo de precificação dos serviços dos clientes, ocasionando desta forma erro de cobrança.                                                        6053072200          
222000001088UT 20150701EB964F4FE30F75C4655B7E5AC07E532C73016099000193ISENTO        CARDOVAL VALVULAS E CONCEXOES LTDA SP73016099000000000009340000000003100000000000780030000000000420000000000112Este erro é conseqüência de falhas operacionais no processo de precificação dos serviços dos clientes, ocasionando desta forma erro de cobrança.                                                        001121088UT201507   
2220000010921  20151101A36134C2CB819E45551002CFBC22B86700030808212893ISENTO        CREUSANEI DE OLIVEIRA DE SANTANA   SP30808212890000000041590000000038560000000009650050000000001180000000000282Este erro é conseqüência de falhas operacionais no processo de precificação dos serviços dos clientes, ocasionando desta forma erro de cobrança.                                                        7602856407_20160128 
222000001101UT 201506017822927A7432B2F615E3EFB8EE00CCBE00026952988890ISENTO        PRISCILA RECHE                     SP26952988890000000006390000000001060000000000270020000000000270000000000092Este erro é conseqüência de falhas operacionais no processo de precificação dos serviços dos clientes, ocasionando desta forma erro de cobrança.                                                        001121101UT201506   
222000001117UT 2015100145C288C96893A0B1ED7C2966B0694AC761907705000181ISENTO        PANIFICADORA VILA ZELINA LTDA      SP61907705000000000196530000000186230000000046560020000000046560000000011942Este erro é conseqüência de falhas operacionais no processo de precificação dos serviços dos clientes, ocasionando desta forma erro de cobrança.                                                        6190770500          
222000001033UT 201505011D5AA5209F171B9A6C02BD5603DCB8DF48496566000182ISENTO        LIRAFER INDUSTRIA E COMERCIO DE PROSP48496566000000000007300000000001060000000000270020000000000270000000000272Este erro é conseqüência de falhas operacionais no processo de precificação dos serviços dos clientes, ocasionando desta forma erro de cobrança.                                                        001121033UT201505   
222000001048UT 2015040100FC1106ABF4B48E44A1F2F2D7F4933158088204000106ISENTO        DICOOMPEL INDUSTRIA E COMERCIO LTDASP58088204000000000001340000000001430000000000360020000000000360000000000342Este erro é conseqüência de falhas operacionais no processo de precificação dos serviços dos clientes, ocasionando desta forma erro de cobrança.                                                        001121048UT201504   
222000001078UT 20151101E67E4F551BA57E6D11018D771947C0F060530722000180ISENTO        CBIT CIA BRASILEIRA ISOLANTES TERMISP60530722000000000008100000000001720000000000430020000000000430000000000172Este erro é conseqüência de falhas operacionais no processo de precificação dos serviços dos clientes, ocasionando desta forma erro de cobrança.                                                        6053072200          
2220000010791  20151001B70C49AF30D67E784138CCBB1362325200006800061840ISENTO        HELENA ADELINA SILVA               SP06800061840000000072700000000042900000000010730010000000010730000000010732Este erro é conseqüência de falhas operacionais no processo de precificação dos serviços dos clientes, ocasionando desta forma erro de cobrança.                                                        0680006184          
222000001137UT 201505012234D49617DB8989B6150408CC31C46960530722000180ISENTO        CBIT CIA BRASILEIRA DE ISOLANTES TESP60530722000000000001620000000001620000000000410010000000000410000000000412Este erro é conseqüência de falhas operacionais no processo de precificação dos serviços dos clientes, ocasionando desta forma erro de cobrança.                                                        001131137UT201505   
222000001202C  20150901FCE85FC8FB8203C014E63DBFAD7BDC8900070340137800ISENTO        ARNALDO JOSE DI PIETRO             AT02249785590000000054990000000054990000000013750010000000013750000000000032Este erro é conseqüência de falhas operacionais no processo de precificação dos serviços dos clientes, ocasionando desta forma erro de cobrança.                                                        224978559           
222000001274UT 201511017331750270F03DC395623EF3F8C9343D63715510000246ISENTO        MAGNUM INDUSTRIA DA AMAZONAS LTDA  SP63715510000000000000190000000000190000000000050010000000000050000000000052Este erro é conseqüência de falhas operacionais no processo de precificação dos serviços dos clientes, ocasionando desta forma erro de cobrança.                                                        6371551000          
222000001277UT 20150701C634249534797B58FC174FB70C3D44E396675111000177ISENTO        G D V COMERCIO DE FERRAMENTAS LTDA SP96675111000000000007580000000001340000000000340020000000000340000000000092Este erro é conseqüência de falhas operacionais no processo de precificação dos serviços dos clientes, ocasionando desta forma erro de cobrança.                                                        001161277UT201507   
222000001296UT 201507012BA23F3D39A7E971D4FF55D814EDB1DE54240379000136ISENTO        PONTUAL SERIGRAFIA S/C LTDA        SP54240379000000000006750000000000510000000000130020000000000130000000000132Este erro é conseqüência de falhas operacionais no processo de precificação dos serviços dos clientes, ocasionando desta forma erro de cobrança.                                                        001161296UT201507   
222000001301UT 201505014AE8C3D3125D39F5DEEE1976538B52BA00008815749888ISENTO        CHEN TEH LONG                      SP08815749880000000006850000000006850000000001710060000000001710000000000582Este erro é conseqüência de falhas operacionais no processo de precificação dos serviços dos clientes, ocasionando desta forma erro de cobrança.                                                        001161301UT201505   
