102558157000162108383949112  TELEFONICA BRASIL S/A                             Av. Engenheiro Luiz Carlos Berrini, 1376, Ed. Eco 004571936São Paulo                     São Paulo                     SPMario Julio Monegatti Junior  Gerente Tributário  011973937777mario.monegatti@telefonica.com          188210700094996637403000925488041470002313789523400003518608594
2220000000611  20151001FB0D723403A2F76C41A2C50949B7C30C00067066240634ISENTO        LUCINEIA APARECIDA VIEIRA DE ANDRADSP67066240630000001200370000001151260000000287840090000000004250000000001062Este erro é conseqüência de falhas operacionais no processo de precificação dos serviços dos clientes, ocasionando desta forma erro de cobrança.                                                        8892876943_20160108 
222000000067UT 201509017C7B8D44A46EDA55CFA5D1B82440D52B03309388000103ISENTO        EMBRAPLAN ENGENHARIA LTDA          SP03309388000000001359200000001203940000000300990070000000213370000000053342Este erro é conseqüência de falhas operacionais no processo de precificação dos serviços dos clientes, ocasionando desta forma erro de cobrança.                                                        0002367UT201509     
222000000067UT 201509017C7B8D44A46EDA55CFA5D1B82440D52B03309388000103ISENTO        EMBRAPLAN ENGENHARIA LTDA          SP03309388000000001359200000001203940000000300990050000000300990000000102012Este erro é conseqüência de falhas operacionais no processo de precificação dos serviços dos clientes, ocasionando desta forma erro de cobrança.                                                        0002367UT201509     
222000000092UT 2015090166A89E6CA77781B1C057E1867714767B00076695166820ISENTO        NILSON TEIXEIRA DE SOUZA           SP76695166820000000008620000000001830000000000460030000000000440000000000112Este erro é conseqüência de falhas operacionais no processo de precificação dos serviços dos clientes, ocasionando desta forma erro de cobrança.                                                        0002592UT201509     
2220000000941  20150901183BADD11ACECCFF1E697003D6C8C62A00060141280859ISENTO        VALDIR PEREIRA DA SILVA            SP60141280850000000851790000000791990000000198010030000000003510000000000882Este erro é conseqüência de falhas operacionais no processo de precificação dos serviços dos clientes, ocasionando desta forma erro de cobrança.                                                        6014128085          
2220000001271  20150401ED8A777A318EAA0C911FD20ECBBDB6B800013553819839ISENTO        FERNANDO PEIXOTO DE ALENCAR        SP13553819830000000077220000000065840000000016470010000000016470000000008992Este erro é conseqüência de falhas operacionais no processo de precificação dos serviços dos clientes, ocasionando desta forma erro de cobrança.                                                        036001271201504     
2220000001731  2015060158C4B59B0FDADF0619B9BD7664C38DD100010435338854ISENTO        SERGIO MARTINS                     SP10435338850000000144700000000137070000000034280060000000034280000000011252Este erro é conseqüência de falhas operacionais no processo de precificação dos serviços dos clientes, ocasionando desta forma erro de cobrança.                                                        076851731201506     
2220000001781  20150501EFCE48B0FDCBBCD38FE1B0C39641525F00010435338854ISENTO        SERGIO MARTINS                     SP10435338850000000133580000000129920000000032490060000000032490000000009632Este erro é conseqüência de falhas operacionais no processo de precificação dos serviços dos clientes, ocasionando desta forma erro de cobrança.                                                        076851781201505     
222000000230UT 2015050186E3D8442D115671489AD83D12D8C31103438514000111ISENTO        POLYBELT COM ACESS INDS LTDA       SP03438514000000000008260000000007410000000001850040000000001850000000000602Este erro é conseqüência de falhas operacionais no processo de precificação dos serviços dos clientes, ocasionando desta forma erro de cobrança.                                                        00051230UT201505    
222000000237UT 201511019ACEF6A1876E05352020D30E9241329508031834000176ISENTO        GRUPO SISTEMA ESCRITORIO CONTABIL SSP08031834000000000000750000000000750000000000190010000000000190000000000192Este erro é conseqüência de falhas operacionais no processo de precificação dos serviços dos clientes, ocasionando desta forma erro de cobrança.                                                        0803183400          
2220000000451  201507017FDBE7170F780A030C3077F626B0821E00089062752349ISENTO        FABIANA REGINA CORREIA MONTEIRO    SP89062752340000000082140000000082140000000020540010000000020540000000012072Este erro é conseqüência de falhas operacionais no processo de precificação dos serviços dos clientes, ocasionando desta forma erro de cobrança.                                                        03335451201507      
2220000000611  20151001FB0D723403A2F76C41A2C50949B7C30C00067066240634ISENTO        LUCINEIA APARECIDA VIEIRA DE ANDRADSP67066240630000001200370000001151260000000287840070000000148220000000037062Este erro é conseqüência de falhas operacionais no processo de precificação dos serviços dos clientes, ocasionando desta forma erro de cobrança.                                                        8892876943_20160108 
2220000000801  201504015755DD0A438E3BDAE43BE38DD341F0C000002563914833ISENTO        JUREMA PEREIRA LEITE DE SIQUEIRA   SP02563914830000000072840000000072840000000018210010000000018210000000008753Ocorre principalmente em função de erro humano no ato do cadastramento no sistema de faturamento do preço da tarifa constante do contrato fechado com o cliente.                                        06389801201504      
222000000093UT 2015040113667C105551DAFC877ADA45334A5AC500076695166820ISENTO        NILSON TEIXEIRA DE SOUZA           SP76695166820000000007170000000000930000000000230020000000000230000000000102Este erro é conseqüência de falhas operacionais no processo de precificação dos serviços dos clientes, ocasionando desta forma erro de cobrança.                                                        0002593UT201504     
2220000000941  20150901183BADD11ACECCFF1E697003D6C8C62A00060141280859ISENTO        VALDIR PEREIRA DA SILVA            SP60141280850000000851790000000791990000000198010050000000198010000000165342Este erro é conseqüência de falhas operacionais no processo de precificação dos serviços dos clientes, ocasionando desta forma erro de cobrança.                                                        6014128085          
2220000001211  201507012C6C2CEAD6B09E2DF212B7841F8F2E2600013553819839ISENTO        FERNANDO PEIXOTO DE ALENCAR        SP13553819830000000000000000000065400000000016360020000000016360000000008882Este erro é conseqüência de falhas operacionais no processo de precificação dos serviços dos clientes, ocasionando desta forma erro de cobrança.                                                        036001211201507     
222000000150UT 201506010B225B44D3235F4976596ED3B824DC0044024941000130ISENTO        FLOW CENTER DO BRASIL INDUSTRIA E CSP44024941000000000083810000000082110000000020530010000000020530000000020532Este erro é conseqüência de falhas operacionais no processo de precificação dos serviços dos clientes, ocasionando desta forma erro de cobrança.                                                        00040150UT201506    
222000000230UT 2015050186E3D8442D115671489AD83D12D8C31103438514000111ISENTO        POLYBELT COM ACESS INDS LTDA       SP03438514000000000008260000000007410000000001850030000000001700000000000422Este erro é conseqüência de falhas operacionais no processo de precificação dos serviços dos clientes, ocasionando desta forma erro de cobrança.                                                        00051230UT201505    
222000000247UT 20150601720547FCEE54FB4C46EB4767DCC20EA402127580000108ISENTO        RR CONSULTORIA E ACESSORIA COMERCIASP02127580000000000000390000000000390000000000100010000000000100000000000102Este erro é conseqüência de falhas operacionais no processo de precificação dos serviços dos clientes, ocasionando desta forma erro de cobrança.                                                        00054247UT201506    
2220000002691  2015120131B497CD9DFADE6861E1D9EC2CC8193E00072490233149ISENTO        JANAINA DUTRA FERLINI              SP72490233140000000089900000000089900000000022480010000000022480000000022482Este erro é conseqüência de falhas operacionais no processo de precificação dos serviços dos clientes, ocasionando desta forma erro de cobrança.                                                        7745484791_20170311 
2220000000461  2015100161CF0DBAE59C71A95DA762670521B4C800097042579887ISENTO        NILTON COUTINHO                    SP97042579880000000137080000000094800000000023700010000000017970000000004492Este erro é conseqüência de falhas operacionais no processo de precificação dos serviços dos clientes, ocasionando desta forma erro de cobrança.                                                        9704257988          
2220000000611  201507016770AA894AEDA63A506D8134E165095F00067066240634ISENTO        LUCINEIA APARECIDA VIEIRA DE ANDRADSP67066240630000000272650000000215690000000053930070000000027770000000006942Este erro é conseqüência de falhas operacionais no processo de precificação dos serviços dos clientes, ocasionando desta forma erro de cobrança.                                                        08892611201507      
2220000000611  20151001FB0D723403A2F76C41A2C50949B7C30C00067066240634ISENTO        LUCINEIA APARECIDA VIEIRA DE ANDRADSP67066240630000001200370000001151260000000287840100000000001430000000000362Este erro é conseqüência de falhas operacionais no processo de precificação dos serviços dos clientes, ocasionando desta forma erro de cobrança.                                                        8892876943_20160108 
2220000000611  20151001FB0D723403A2F76C41A2C50949B7C30C00067066240634ISENTO        LUCINEIA APARECIDA VIEIRA DE ANDRADSP67066240630000001200370000001151260000000287840110000000067470000000000892Este erro é conseqüência de falhas operacionais no processo de precificação dos serviços dos clientes, ocasionando desta forma erro de cobrança.                                                        8892876943_20160108 
2220000000801  201504015755DD0A438E3BDAE43BE38DD341F0C000002563914833ISENTO        JUREMA PEREIRA LEITE DE SIQUEIRA   SP02563914830000000072840000000072840000000018210020000000018210000000009463Ocorre principalmente em função de erro humano no ato do cadastramento no sistema de faturamento do preço da tarifa constante do contrato fechado com o cliente.                                        06389801201504      